S012000052435F6465636F6465722E7372656348
S11300000C943E000C9452000C9472000C9450001A
S11300100C9450000C9450000C9450000C9450001C
S11300200C9450000C9450000C9450000C9450000C
S11300300C9450000C9450000C9450000C945000FC
S11300400C9450000C9450000C9450000C945000EC
S11300500C9450000C9450000C9450000C945000DC
S11300600C9450000C9450000C9450000C945000CC
S11300700C9450000C9450000C94500011241FBE9A
S1130080CFEFD8E0DEBFCDBF21E0A0E0B1E001C0FA
S11300901D92A830B207E1F70E94B8000C94FE004C
S11300A00C9400001F920F920FB60F9211248F939D
S11300B09F934A9B05C010928500109284000BC048
S11300C081E0809300018091840090918500909359
S11300D00501809304019F918F910F900FBE0F90A3
S11300E01F9018951F920F920FB60F9211248F93A1
S11300F09F934B9B09C080918400909185009093BD
S11301000301809302010BC081E080930001809180
S113011084009091850090930701809306019F913C
S11301208F910F900FBE0F901F901895E9E6F0E0A5
S113013080818160808380818D7F8083E89A0895A7
S1130140E9E6F0E08081846080838081877F80831A
S1130150E99A0895E1E8F0E08081817E8083A0E857
S1130160B0E08C918C7F8C93808181608083089532
S11301700E9496000E94A0000E94AA008FEF87B9F7
S1130180809101018823D1F08091040190910501AF
S11301909C0129523441213E324010F4469A0CC04D
S11301A08D3C2CE1920718F018B8459A05C0863F9B
S11301B09C4010F018B8479A1092010180910001F8
S11301C08823F1F280910601909107019C01295244
S11301D03441213E324018F418B8419A0CC08D3C89
S11301E02CE1920718F018B8409A05C0863F9C404D
S11301F010F018B8429A10920001C2CFF894FFCFC1
S9030000FC
