:100000000C943E000C94D7000C94F7000C94500014
:100010000C9450000C9450000C9450000C94500020
:100020000C9450000C9450000C9450000C94500010
:100030000C9450000C9450000C9450000C94500000
:100040000C9450000C9450000C9450000C945000F0
:100050000C9450000C9450000C9450000C945000E0
:100060000C9450000C9450000C9450000C945000D0
:100070000C9450000C9450000C94500011241FBE9E
:10008000CFEFD8E0DEBFCDBF21E0A0E0B1E001C0FE
:100090001D92A830B207E1F70E9452000C9444016F
:1000A0000C940000CF93DF9300D0CDB7DEB70E9451
:1000B0001B010E9425010E942F018FEF87B97894C0
:1000C000809101018823B9F1809106019091070187
:1000D0008932944158F080910601909107018A304D
:1000E000974120F40E944201469A23C08091060164
:1000F000909107018832944158F4809106019091C3
:100100000701863F9C4020F00E944201459A11C0A1
:1001100080910601909107018B30974150F08091BA
:10012000060190910701813A9E4118F40E94420114
:10013000479A1092010180910001882309F2609191
:1001400002017091030180910401909105010E94C8
:100150003D019A83898389819A818932944148F04B
:1001600089819A818A30974120F40E944201419A04
:100170001BC089819A818B30974148F089819A818F
:1001800085309F4120F40E944201409A0DC0898130
:100190009A818832944140F489819A8187369E40C1
:1001A00018F00E944201429A1092000189CF1F92DA
:1001B0000F920FB60F9211248F939F934A9B05C005
:1001C00010928500109284000BC081E080930101A1
:1001D000809184009091850090930701809306019F
:1001E0009F918F910F900FBE0F901F9018951F92A7
:1001F0000F920FB60F9211248F939F934B9B09C0C0
:100200008091840090918500909305018093040172
:100210000BC081E080930001809184009091850063
:1002200090930301809302019F918F910F900FBED5
:100230000F901F901895E9E6F0E08081816080833F
:1002400080818D7F8083E89A0895E9E6F0E08081DF
:10025000846080838081877F8083E99A0895E1E8C4
:10026000F0E08081817E8083A0E8B0E08C918C7F7B
:100270008C9380818160808308959B01281B390BBA
:0C028000C901089518B80895F894FFCF44
:00000001FF
